:100000000C945C000C9479000C9479000C947900A9
:100010000C9479000C9479000C9479000C9479007C
:100020000C9479000C9479000C9479000C9479006C
:100030000C9479000C9479000C9479000C9479005C
:100040000C9417010C9479000C9479000C947900AD
:100050000C9479000C9479000C9479000C9479003C
:100060000C9479000C947900000000070002010054
:100070000003040600000000000000000102040864
:100080001020408001020408102001020408102002
:10009000040404040404040402020202020203032E
:1000A0000303030300000000250028002B000000CC
:1000B0000000240027002A0011241FBECFEFD8E043
:1000C000DEBFCDBF11E0A0E0B1E0E0E1F6E002C0AC
:1000D00005900D92A031B107D9F711E0A0E1B1E090
:1000E00001C01D92AD31B107E1F70E94F9020C94F5
:1000F00006030C940000CF93DF9360E084E10E943C
:100100000E0260E083E10E940E0261E083E00E9443
:100110000E0261E085E00E940E02C4E0D1E0888119
:10012000229661E00E940E0281E0CE30D807B9F736
:10013000DF91CF910895EF92FF920F931F93CF938A
:10014000DF936AE070E080E090E00E94840180919B
:10015000100190911101019790931101809310016A
:1001600083E10E947D02909313018093120180919C
:1001700010019091110197FF53C060E070E083E09F
:100180000E949A0220911201309113018091020184
:100190009091030182179307A4F48091000190913C
:1001A0000101019790930101809300018CE291E09D
:1001B000909311018093100168EC70E083E00E943D
:1001C0009A0294E0E92E91E0F92E00E010E0C0914F
:1001D0000001D09101010C171D075CF4F70180812B
:1001E000F2E0EF0EF11C61E00E9447020F5F1F4F2B
:1001F000EECF7E01EE0CFF1CC7018C5F9E4F7C0191
:1002000000E010E0C530D1055CF4F701E00FF11F0C
:1002100060E080810E94470221960E5F1F4FF2CF5F
:10022000DF91CF911F910F91FF90EF9008951F9252
:100230000F920FB60F9211242F933F938F939F939A
:10024000AF93BF938091150190911601A091170172
:10025000B09118013091140123E0230F2D3720F4C1
:100260000196A11DB11D05C026E8230F0296A11D10
:10027000B11D209314018093150190931601A09352
:100280001701B09318018091190190911A01A09162
:100290001B01B0911C010196A11DB11D8093190194
:1002A00090931A01A0931B01B0931C01BF91AF91D1
:1002B0009F918F913F912F910F900FBE0F901F90A4
:1002C00018953FB7F8948091190190911A01A09167
:1002D0001B01B0911C0126B5A89B05C02F3F19F04A
:1002E0000196A11DB11D3FBF6627782F892F9A2F38
:1002F000620F711D811D911D42E0660F771F881FDF
:10030000991F4A95D1F70895CF92DF92EF92FF920D
:10031000CF93DF936B017C010E946101EB01C1145B
:10032000D104E104F10479F00E9461016C1B7D0BA2
:10033000683E7340A0F381E0C81AD108E108F108D3
:10034000C851DC4FECCFDF91CF91FF90EF90DF9061
:10035000CF900895789484B5826084BD84B581601F
:1003600084BD85B5826085BD85B5816085BDEEE6BD
:10037000F0E0808181608083E1E8F0E0108280819C
:1003800082608083808181608083E0E8F0E080810A
:1003900081608083E1EBF0E0808184608083E0EB2A
:1003A000F0E0808181608083EAE7F0E08081846012
:1003B000808380818260808380818160808380816E
:1003C000806880831092C1000895833081F028F402
:1003D000813099F08230A1F008958630A9F08730FD
:1003E000B9F08430D1F4809180008F7D03C080917A
:1003F00080008F7780938000089584B58F7702C046
:1004000084B58F7D84BD08958091B0008F7703C03F
:100410008091B0008F7D8093B0000895CF93DF93DB
:1004200090E0FC01E458FF4F2491FC01E057FF4F9E
:100430008491882349F190E0880F991FFC01E255CF
:10044000FF4FA591B4918C559F4FFC01C591D4915C
:100450009FB7611108C0F8948C91209582238C93EA
:10046000888182230AC0623051F4F8948C91322F33
:10047000309583238C938881822B888304C0F894E1
:100480008C91822B8C939FBFDF91CF9108950F9316
:100490001F93CF93DF931F92CDB7DEB7282F30E0A5
:1004A000F901E859FF4F8491F901E458FF4F149185
:1004B000F901E057FF4F04910023C9F0882321F090
:1004C00069830E94E5016981E02FF0E0EE0FFF1FD4
:1004D000EC55FF4FA591B4919FB7F8948C916111A1
:1004E00003C01095812301C0812B8C939FBF0F9077
:1004F000DF91CF911F910F9108958E3008F08E50AB
:10050000877020910E0190E4299F90011124822B85
:1005100080937C0080917A00806480937A0080913F
:100520007A0086FDFCCF809178002091790090E0E0
:10053000922B08951F93CF93DF93182FEB0161E067
:100540000E940E02209711F460E004C0CF3FD10555
:1005500039F461E0812FDF91CF911F910C94470214
:10056000E12FF0E0E859FF4FE491E330F9F048F46F
:10057000E130B9F0E230A1F584B5806284BDC8BD38
:1005800034C0E630E9F0E73019F1E43049F5809104
:100590008000806280938000D0938B00C0938A009B
:1005A00024C084B5806884BDC7BD1FC08091800011
:1005B000806880938000D0938900C093880015C024
:1005C0008091B00080688093B000C093B3000DC0EC
:1005D0008091B00080628093B000C093B40005C0E9
:1005E000C038D1050CF0B5CFAFCFDF91CF911F91BF
:1005F00008950E94AA010E947B00C0E0D0E00E9402
:100600009B002097E1F30E940000F9CFF894FFCF00
:100610000500C800050006001000120011000100CE
:00000001FF
